S0130000667572792D6272696467652E73726563B1
S11300000C9434000C9451000C9451000C94510045
S11300100C9451000C947C010C9451000C945100EC
S11300200C9451000C9451000C9451000C94510008
S11300300C9451000C9451000C9451000C945100F8
S11300400C9453000C9451000C9451000C945100E6
S11300500C9451000C9451000C9451000C945100D8
S11300600C9451000C94510011241FBECFEFD8E022
S1130070DEBFCDBF12E0A0E0B1E0EAE6F6E002C0E8
S113008005900D92A230B107D9F722E0A2E0B2E0C8
S113009001C01D92AC31B207E1F70E94C2010C9479
S11300A033030C9400001F920F920FB60F92112489
S11300B08F939F93AF93BF93809102029091030219
S11300C0A0910402B09105020196A11DB11D809377
S11300D0020290930302A0930402B0930502BF911D
S11300E0AF919F918F910F900FBE0F901F90189515
S11300F084B1826284B98AB189638AB952985A9A5E
S11301000895EDE6F0E0808184608083E8E6F0E025
S11301108081846080837894089584B5836084BDED
S113012085B5836085BDEEE6F0E0808181608083E3
S1130130E0E8F0E0808181688083E1E8F0E080819C
S1130140816080830895F894809102029091030263
S1130150A0910402B091050226B5A89B05C02F3FCB
S113016019F00196A11DB11D7894BA2FA92F982FCB
S11301708827820F911DA11DB11DBC01CD01660F01
S1130180771F881F991F660F771F881F991F08956F
S11301909C01245F314081E0213D374008F080E03C
S11301A008952F923F924F925F926F927F928F9217
S11301B09F92AF92BF92CF92DF92EF92FF920F93F2
S11301C01F93CF93DF9300D0CDB7DEB73B01FA0185
S11301D03A8329831C01092E000C44085508980110
S11301E0280D391DA901330F660B770B42155305F2
S11301F0640575050CF5801B910B9C0128193909C0
S1130200D601AA19BB090E94F30229813A81201B55
S1130210310B28193909032E000C440B550B0E948D
S1130220D402C501BB0CAA0BBB0B89019A01080FB0
S1130230191F2A1F3B1F30C0980128193909A90129
S1130240330F660B770B241635064606570604F55E
S1130250801B910B9C01280D391DD501AE19BF09D6
S11302600E94F30298012E1B3F0B28193909032E13
S1130270000C440B550B0E94D402C501BB0CAA0B05
S1130280BB0B89019A01080F191F2A1F3B1F04C0C9
S11302908501BB0C220B330BC801861997094F89C2
S11302A0588D4817590724F4CA01860D971D0FC0AD
S11302B06F89788D7195619571098617970734F464
S11302C0C3012F89388D821B930B01C0C8010F9085
S11302D00F90DF91CF911F910F91FF90EF90DF90DE
S11302E0CF90BF90AF909F908F907F906F905F90D2
S11302F04F903F902F9008951F920F920FB60F9238
S113030011240F931F932F933F934F935F936F93F6
S11303107F938F939F93AF93BF93EF93FF934A9BE6
S11303200BC00E94A300609318027093190280937B
S11303301A0290931B0213C00E94A300009118029A
S11303401091190220911A0230911B02601B710B4B
S1130350709317026093160281E080931502FF9157
S1130360EF91BF91AF919F918F917F916F915F9129
S11303704F913F912F911F910F910F900FBE0F90AE
S11303801F9018950E9478000E9481000E948D00A1
S11303906894222421F8C8E8D0E00F2EF8EE4F2EFE
S11303A0F3E05F2EF02D0F2EF0ED6F2EF7E07F2E91
S11303B0F02D332433940E94A30000910A0210917B
S11303C00B0220910C0230910D02DC01CB01801B49
S11303D0910BA20BB30B893E9340A105B10558F3D1
S11303E00E94A30060930A0270930B0280930C0294
S11303F090930D0280911602909117020E94C800FA
S1130400882349F080911602909117029093140268
S1130410809313020AC010921502809113029091E6
S11304201402909317028093160280911602909101
S11304301702813D974028F07092170260921602CD
S11304400BC08091160290911702883E934020F4CD
S1130450509217024092160280911502882341F1AE
S1130460809116029091170260911102709112020C
S11304701F922F920F2EF9E18F2E912CF02DA12C8B
S1130480B12C0F2EFAEFCF2ED12CF02D0F2EF6E03B
S1130490EF2EFF24FA94F02D0CED15E09301A20148
S11304A00E94D10090931202809311020F900F903A
S11304B0809111029091120299231CF030920E0245
S11304C002C010920E029093100280930F022091AA
S11304D00E02211107C09195819591099093100204
S11304E080930F02E0910F02F0911002E050FF4F51
S11304F0808190E08B3F910528F4909310028093C3
S11305000F0206C08AEF90E09093100280930F02CE
S113051080910002811114C0222349F080910F02BE
S113052090911002998388835C9A5D980BC08091A6
S11305300F0290911002998388835C985D9A02C09F
S1130540198218820E94A3000091060210910702EA
S11305502091080230910902DC01CB01801B910B30
S1130560A20BB30B8132914AA740B10508F423CF03
S11305700E94A3006093060270930702809308020E
S11305809093090280911502882331F08BB1896020
S11305908BB91092000205C08BB1867F8BB9309263
S11305A000021092150207CF052E97FB1EF400944B
S11305B00E94EB0257FD07D00E94110307FC03D0F1
S11305C04EF40C94EB0250954095309521953F4F95
S11305D04F4F5F4F089590958095709561957F4F2B
S11305E08F4F9F4F08950E94FB02332312F48A1BFE
S11305F09B0B0C940C03A29FB001B39FC001A39F5B
S1130600700D811D1124911DB29F700D811D112447
S1130610911D08950E94FB02B7FF0895821B930B5E
S11306200895A1E21A2EAA1BBB1BFD010DC0AA1F2F
S1130630BB1FEE1FFF1FA217B307E407F50720F047
S1130640A21BB30BE40BF50B661F771F881F991FC2
S11306501A9469F760957095809590959B01AC010B
S10D0660BD01CF010895F894FFCF07
S113066A000001010202030404050506070708083D
S113067A090A0A0B0C0C0D0E0E0F0F10111112138E
S113068A131415151617171819191A1B1B1C1D1ED6
S113069A1E1F202021222323242525262728282912
S11306AA2A2B2B2C2D2E2E2F303131323334353543
S11306BA36373839393A3B3C3D3D3E3F4041424268
S11306CA43444546474848494A4B4C4D4E4F50507F
S11306DA5152535455565758595A5B5B5C5D5E5F89
S11306EA606162636465666768696A6B6C6D6E6F84
S11306FA7071727374757677787A7B7C7D7E7F806D
S113070A81828384858788898A8B8C8D8E90919245
S113071A9394959798999A9B9C9E9FA0A1A3A4A50C
S113072AA6A7A9AAABACAEAFB0B2B3B4B5B7B8B9C1
S113073ABBBCBDBFC0C1C3C4C5C7C8C9CBCCCECF5F
S113074AD0D2D3D5D6D7D9DADCDDDFE0E2E3E4E6EA
S113075AE7E9EAECEDEFF1F2F4F5F7F8FAFBFDFF5D
S105076A010088
S9030000FC
